:020000040800F2
:1000000078060020F9010008C11300088D120008CD
:10001000BD1300080103000841150008000000009E
:100020000000000000000000000000007114000843
:10003000050300080000000031140008C91400087E
:10004000130200081302000813020008130200083C
:10005000130200081302000813020008130200082C
:10006000130200081302000813020008130200081C
:10007000130200081302000813020008130200080C
:1000800013020008130200081302000813020008FC
:1000900013020008130200081302000815030008E9
:1000A00013020008130200081302000813020008DC
:1000B00013020008130200081302000813020008CC
:1000C00013020008130200081302000813020008BC
:1000D00013020008130200081302000813020008AC
:1000E00009030008130200081302000813020008A5
:1000F000130200081302000813020008130200088C
:10010000130200081302000813020008130200087B
:10011000130200081302000813020008130200086B
:10012000130200081302000813020008130200085B
:1001300000F002F800F050F814A696E8000CB24463
:10014000B344DA4501D100F047F8BAE80F000FA632
:1001500096E83000A5EB040504EB0607AAEB0704BC
:10016000A7F101074FEA15154FEA3414A4F1010471
:10017000AC4201D300F030F813F0010F18BFFB1AA6
:1001800043F0010300F001F8DBE718478015000099
:10019000A0150000103A24BF78C878C1FAD85207D9
:1001A00024BF30C830C144BF04680C6070470000F1
:1001B000704700000023002400250026103A28BFC5
:1001C00078C1FBD8520728BF30C148BF0B607047C9
:1001D0001FB51FBD10B510BD00F058F81146FFF750
:1001E000F7FF01F00FFA00F076F803B4FFF7F2FF23
:1001F00003BC00F07DF8000009488047094800472B
:10020000FEE7FEE7FEE7FEE7FEE7FEE7FEE7FEE7C6
:10021000FEE7FEE704480549054A064B7047000023
:100220003D15000831010008780000207806002004
:1002300078020020780200204FF0000200B513463B
:1002400094469646203922BFA0E80C50A0E80C50F6
:10025000B1F12001BFF4F7AF090728BFA0E80C50A7
:1002600048BF0CC05DF804EB890028BF40F8042BA0
:1002700008BF704748BF20F8022B11F0804F18BF0D
:1002800000F8012B7047704770477047754600F0C3
:100290002BF8AE4605006946534620F00700854618
:1002A00018B020B5FFF7B6FFBDE820404FF00006BC
:1002B0004FF000074FF000084FF0000BAC46ACE8E1
:1002C000C009ACE8C009ACE8C009ACE8C00921F03D
:1002D00007018D46704710B50446AFF300802046F5
:1002E000BDE81040FFF781BF0048704710000020B4
:1002F00001491820ABBEFEE726000200704700004F
:10030000FFE7FEE77047000080B54FF4004000F0C3
:100310004FF880BD80B5202000F04AF880BD000075
:1003200081B0EFF3108072B60090FFE7FEE70000A7
:1003300080B584B0039000F01BFA029003980190FE
:100340000198013048B1FFE740F20500C2F2000019
:100350000178019808440190FFE7FFE700F008FAF0
:100360000299401A0199884201D2FFE7F6E704B0EA
:1003700080BD000081B0ADF80200BDF80200202869
:1003800007D1FFE740F20401C2F200011920087012
:10039000FFE7BDF80200B0F5004F07D1FFE740F2DC
:1003A0000401C2F2000112200870FFE701B070479B
:1003B00080B582B0ADF8060040F21440C4F20100EE
:1003C0000068BDF8061008420CD0FFE7BDF8060033
:1003D00040F21441C4F201010860BDF80600FFF7C5
:1003E000C9FFFFE702B080BD92B0119010910020CC
:1003F0000F900B90FFE7109800680F99C8400028F5
:1004000000F09B81FFE70F99012088400E90109823
:1004100000680E9908400D900D980E99884240F0A2
:100420008881FFE7109840680790002851D0FFE7C7
:10043000079801283AD0FFE7079802283FD0FFE746
:10044000079803285FD0FFE70798112832D0FFE70D
:100450000798122838D0FFE707980021C1F2110150
:10046000884236D0FFE707980021C1F21201884286
:100470002FD0FFE707980021C1F22101884228D040
:10048000FFE707980021C1F22201884221D0FFE74F
:1004900007980021C1F2310188421AD0FFE707987E
:1004A0000021C1F23201884213D02FE01098C068B9
:1004B0000B902CE01098C06804300B9027E0109847
:1004C000C06808300B9022E01098C0680C300B9088
:1004D0001DE01098806818B9FFE704200B9011E028
:1004E00010988068012806D1FFE708200B900E982D
:1004F0001199086105E008200B900E981199486148
:10050000FFE7FFE703E000200B9000E0FFE70D9816
:10051000FF2803D8FFE71198069003E011980430F4
:100520000690FFE706980A900D98FF2804D8FFE789
:100530000F988000059006E00F996FF01F0000EB08
:1005400081000590FFE7059809900A980068099ACC
:100550000F21914088430B99914008430A99086004
:100560001098C079C006002840F1E280FFE7FFE75D
:1005700041F21800C4F20200016841F0010101607B
:10058000006800F0010008900898FFE70F9820F03D
:1005900003000821C4F2010140580C900F9800F0AC
:1005A000030081000F2000FA01F10C9888430C90A1
:1005B000119840F60001C4F20101884203D1FFE71F
:1005C0000020049042E0119840F60041C4F201017D
:1005D000884203D1FFE70120039034E0119841F2F3
:1005E0000001C4F20101884203D1FFE7022002901A
:1005F00026E0119841F20041C4F20101884203D182
:10060000FFE70320019018E0119841F60001C4F2C1
:100610000101884203D1FFE7042000900AE011990C
:1006200041F60042C4F201020620914208BF0520B3
:100630000090FFE700980190FFE701980290FFE724
:1006400002980390FFE703980490FFE704980F993E
:1006500001F00301890000FA01F10C9808430C90A5
:100660000C980F9921F003010822C4F2010288506E
:1006700010988079C006002809D5FFE70D9A40F24E
:100680000841C4F2010108681043086008E00D9AAF
:1006900040F20841C4F20101086890430860FFE796
:1006A000109880798006002809D5FFE70D9A40F25E
:1006B0000C41C4F2010108681043086008E00D9A7B
:1006C00040F20C41C4F20101086890430860FFE762
:1006D000109880798007002809D5FFE70D9A40F22D
:1006E0000441C4F2010108681043086008E00D9A53
:1006F00040F20441C4F20101086890430860FFE73A
:1007000010988079C00748B1FFE70D9A40F2004188
:10071000C4F2010108681043086008E00D9A40F235
:100720000041C4F20101086890430860FFE7FFE759
:10073000FFE70F9801300F905DE612B070470000A0
:1007400082B00190ADF802108DF801209DF80100F3
:1007500028B1FFE7BDF802000199086105E0BDF886
:100760000200000401990861FFE702B07047000031
:1007700040F27000C2F200000068704740F20500CD
:10078000C2F20000027840F27001C2F20001086873
:10079000104408607047000080B542F20001C4F2C6
:1007A0000201086840F010000860032000F096F88D
:1007B0000F2000F005F800F03BF8002080BD00009D
:1007C00080B582B0009040F20000C2F200000068E4
:1007D00040F20501C2F200010A784FF47A71B1FBD0
:1007E000F2F1B0FBF1F000F049FD20B1FFE701208C
:1007F0008DF8070018E000980F280DD8FFE7009942
:100800004FF0FF30002200F04FF8009840F208014E
:10081000C2F20001086003E001208DF8070003E048
:1008200000208DF80700FFE79DF8070002B080BDAB
:1008300083B0FFE741F21800C4F20200016841F002
:1008400001010160006800F0010002900298FFE7DA
:10085000FFE741F21C00C4F20200016841F0805140
:100860000160006800F0805001900198FFE7FFE709
:100870000421C4F2010108680090009820F0E060B3
:100880000090009840F00070009000980860FFE72A
:1008900003B0704780B582B08DF807009DF907005E
:1008A00000F050FE02B080BD80B586B08DF8170014
:1008B000049103920020029000F05CFE02909DF9EA
:1008C0001700019002980499039A00F07BFD0146FD
:1008D000019800F057FE06B080BD000080B582B0E0
:1008E0000190019800F070FE02B080BD80B584B028
:1008F00002900191029820B9FFE701208DF80F00C6
:100900001BE1019842F20001C4F20201096801F002
:100910000701884216D9FFE742F20000C4F2020044
:10092000016821F00701019A11430160006800F09D
:1009300007000199884204D0FFE701208DF80F00DD
:10094000FBE0FFE702980078800700282AD5FFE740
:10095000029800784007002809D5FFE741F204011A
:10096000C4F20201086840F4E0600860FFE7029802
:1009700000780007002809D5FFE741F20401C4F21E
:100980000201086840F460500860FFE741F204018A
:10099000C4F20201086820F0F000029A9268104345
:1009A0000860FFE702980078C007002860D0FFE7E2
:1009B0000298406801280ED1FFE741F20000C4F21E
:1009C000020000688003002804D4FFE701208DF8AE
:1009D0000F00B2E021E00298406802280ED1FFE744
:1009E00041F20000C4F2020000688001002804D433
:1009F000FFE701208DF80F009FE00DE041F20000BD
:100A0000C4F2020000688007002804D4FFE7012038
:100A10008DF80F0091E0FFE7FFE741F20401C4F217
:100A20000201086820F00300029A5268104308602F
:100A3000FFF79EFE0090FFE741F20400C4F20200BF
:100A4000006800F00C0002994968B0EB810F0ED0ED
:100A5000FFE7FFF78DFE0099401A41F28931884285
:100A600004D3FFE703208DF80F0066E0E4E7FFE71B
:100A7000019842F20001C4F20201096801F0070185
:100A8000884216D2FFE742F20000C4F20200016879
:100A900021F00701019A11430160006800F007008E
:100AA0000199884204D0FFE701208DF80F0044E04F
:100AB000FFE702980078400700280CD5FFE741F2D5
:100AC0000401C4F20201086820F4E060029AD268CE
:100AD00010430860FFE702980078000700280DD552
:100AE000FFE741F20401C4F20201086820F46050FB
:100AF000029A126940EAC2000860FFE700F022F89B
:100B000041F20401C4F202010968C9B20A0941F2C2
:100B1000EA61C0F60001895CC84040F20001C2F2FF
:100B20000001086040F20800C2F200000068FFF710
:100B300047FE00208DF80F00FFE79DF80F0004B07E
:100B400080BD000086B000200590049003900290C4
:100B5000019041F20400C4F202000068059005987B
:100B600000F00C000146009100283FD0FFE70098FC
:100B7000042804D0FFE70098082806D037E041F2A7
:100B80000020C0F27A00019037E00598C0F383415D
:100B900041F2FA60C0F60000405C02909DF8160039
:100BA000C007C0B1FFE741F20400C4F202000068D0
:100BB000C0F3404141F20A70C0F60000405C04906E
:100BC000029841F20021C0F27A0148430499B0FB37
:100BD000F1F0039007E0029840F60011C0F23D01E9
:100BE00048430390FFE70398019006E0FFE741F2D6
:100BF0000020C0F27A000190FFE7019806B070472C
:100C000080B586B00490049820B9FFE701208DF8E4
:100C100017002EE304980078C007002800F0AE808B
:100C2000FFE741F20400C4F20200006800F00C008B
:100C3000042813D0FFE741F20400C4F20200006868
:100C400000F00C0008281BD1FFE741F20400C4F2B9
:100C500002000068C003002812D5FFE741F200003F
:100C6000C4F2020000688003002808D5FFE704985A
:100C7000406820B9FFE701208DF81700F9E27CE019
:100C8000FFE704984068B0F5803F09D1FFE741F2E3
:100C90000001C4F20201086840F48030086032E0CC
:100CA0000498406868B9FFE741F20001C4F202010C
:100CB000086820F480300860086820F4802008600C
:100CC00020E004984068B0F5A02F0DD1FFE741F275
:100CD0000001C4F20201086840F48020086008683E
:100CE00040F4803008600CE041F20001C4F20201DF
:100CF000086820F480300860086820F480200860CC
:100D0000FFE7FFE7FFE7FFE704984068D0B1FFE7A0
:100D1000FFF72EFD0390FFE741F20000C4F202004E
:100D20000068800300280CD4FFE7FFF721FD03993A
:100D3000401A652804D3FFE703208DF8170098E2D6
:100D4000EAE719E0FFF714FD0390FFE741F2000026
:100D5000C4F202000068800300280CD5FFE7FFF70B
:100D600007FD0399401A652804D3FFE703208DF897
:100D700017007EE2EAE7FFE7FFE7FFE70498007865
:100D80008007002840F18D80FFE741F20400C4F2A3
:100D90000200006810F00C0F13D0FFE741F20400CE
:100DA000C4F20200006800F00C00082829D1FFE717
:100DB00041F20400C4F202000068C003002820D4FD
:100DC000FFE741F20000C4F202000068800700283B
:100DD00009D5FFE704980069012804D0FFE7012046
:100DE0008DF8170045E241F20001C4F202010868E3
:100DF00020F0F800049A526940EAC2000860FFE758
:100E00004EE00498006958B3FFE70021C4F2422184
:100E100001200860FFF7ACFC0390FFE741F20000FF
:100E2000C4F202000068800700280CD4FFE7FFF737
:100E30009FFC0399401A032804D3FFE703208DF891
:100E4000170016E2EAE741F20001C4F20201086865
:100E500020F0F800049A526940EAC20008601EE0DF
:100E60000021C4F2422100200860FFF781FC0390BA
:100E7000FFE741F20000C4F202000068800700288A
:100E80000CD5FFE7FFF774FC0399401A032804D33D
:100E9000FFE703208DF81700EBE1EAE7FFE7FFE744
:100EA000FFE7049800780007002848D5FFE704987A
:100EB000806918B3FFE740F28041C4F2422101206B
:100EC0000860FFF755FC0390FFE741F22400C4F2ED
:100ED00002000068800700280CD4FFE7FFF748FCF9
:100EE0000399401A032804D3FFE703208DF8170065
:100EF000BFE1EAE7012000F09DFA1FE040F28041E7
:100F0000C4F2422100200860FFF732FC0390FFE7A3
:100F100041F22400C4F202000068800700280CD5CA
:100F2000FFE7FFF725FC0399401A032804D3FFE7E6
:100F300003208DF817009CE1EAE7FFE7FFE704983C
:100F400000784007002840F1D880FFE700208DF8A6
:100F5000070041F21C00C4F202000068C000002833
:100F600013D4FFE7FFE741F21C00C4F2020001685E
:100F700041F080510160006800F0805000900098BE
:100F8000FFE701208DF80700FFE747F20000C4F2F9
:100F900000000068C005002822D4FFE747F20001E6
:100FA000C4F20001086840F480700860FFF7E0FBBD
:100FB0000390FFE747F20000C4F200000068C0059C
:100FC00000280CD4FFE7FFF7D3FB0399401A6528EC
:100FD00004D3FFE703208DF817004AE1EAE7FFE7B3
:100FE000FFE70498C068012809D1FFE741F220011A
:100FF000C4F20201086840F00100086031E0049882
:10100000C06868B9FFE741F22001C4F20201086834
:1010100020F001000860086820F0040008601FE06C
:101020000498C06805280DD1FFE741F22001C4F201
:101030000201086840F004000860086840F0010000
:1010400008600CE041F22001C4F20201086820F0BF
:1010500001000860086820F004000860FFE7FFE76F
:10106000FFE7FFE70498C068E0B1FFE7FFF780FB08
:101070000390FFE741F22000C4F2020000688007FD
:1010800000280ED4FFE7FFF773FB0399401A41F2E3
:101090008931884204D3FFE703208DF81700E8E088
:1010A000E8E71BE0FFF764FB0390FFE741F2200055
:1010B000C4F202000068800700280ED5FFE7FFF7A2
:1010C00057FB0399401A41F28931884204D3FFE764
:1010D00003208DF81700CCE0E8E7FFE79DF8070054
:1010E000012809D1FFE741F21C01C4F2020108689E
:1010F00020F080500860FFE7FFE70498C0690028EF
:1011000000F0B380FFE741F20400C4F2020000687F
:1011100000F00C00082800F08280FFE70498C06906
:1011200002285CD1FFE76021C4F242210020086060
:10113000FFF71EFB0390FFE741F20000C4F202003C
:101140000068800100280CD5FFE7FFF711FB039929
:10115000401A032804D3FFE703208DF8170088E026
:10116000EAE70498006AB0F5803F0CD1FFE741F24E
:101170000401C4F20201086820F40030049A926865
:1011800010430860FFE741F20401C4F2020108685D
:1011900020F47410049B1A6A5B6A1A4310430860B7
:1011A0006021C4F2422101200860FFF7E1FA0390B8
:1011B000FFE741F20000C4F202000068800100284D
:1011C0000CD4FFE7FFF7D4FA0399401A032804D39D
:1011D000FFE703208DF817004BE0EAE71EE06021EF
:1011E000C4F2422100200860FFF7C2FA0390FFE733
:1011F00041F20000C4F202000068800100280CD512
:10120000FFE7FFF7B5FA0399401A032804D3FFE775
:1012100003208DF817002CE0EAE7FFE724E00498AC
:10122000C069012804D1FFE701208DF8170020E0F4
:1012300041F20400C4F2020000680290029800F437
:1012400080300499096A884208D1FFE7029800F4C7
:1012500070100499496A884204D0FFE701208DF894
:10126000170006E0FFE7FFE7FFE700208DF8170013
:10127000FFE79DF8170006B080BD000080B582B082
:101280000190019800F0F6F802B080BDFFE7FEE79C
:1012900080B592B00020119010900F900E90FFE753
:1012A00041F21800C4F20200016841F0200101601F
:1012B000006800F020000D900D98FFE7FFE741F275
:1012C0001800C4F20200016841F0040101600068E6
:1012D00000F004000C900C98FFE7FFE741F21800C3
:1012E000C4F20200016841F010010160006800F0E2
:1012F00010000B900B98FFE740F60000C4F20100CD
:1013000002904FF48071009101220492FFF718FAC5
:10131000049A41F20040C4F20100069004210391B6
:10132000FFF70EFA049820210E910021C1F221014D
:1013300001910F91109041F20000C4F201000EA93A
:101340000791FFF751F8009B0298049A07990E93B2
:101350000F921092022205921192FFF745F8019B1D
:101360000298049A07994FF4004CCDF838C00F93B7
:101370001092FFF739F8DDF80CC0049B059A069827
:101380000799CDF838C00F9310931192FFF72CF8FE
:1013900017200890002209921146FFF785FA089855
:1013A000FFF778FA099A28200A901146FFF77CFA8D
:1013B0000A98FFF76FFA12B080BD0000FFE7FEE762
:1013C000FFE7FEE788B0079006910592079800F0C6
:1013D000070004900498C0F10700052803D3FFE735
:1013E0000420019004E00498C0F107000190FFE799
:1013F0000198039004980430062803D8FFE70020E2
:10140000009003E0049803380090FFE700980290F2
:1014100006980399012202FA01F101390840029B62
:10142000984005999A40013A1140084308B0704726
:101430007047000082B00190019840F20001C2F2B2
:1014400000010968C90844F6D352C1F26202A1FB47
:101450000221890948430090FFE700BFFFE7009899
:10146000411E00910028F8D1FFE702B0704700004C
:101470007047000080B582B0009000980138B0F14C
:10148000807F03D3FFE70120019019E00098013825
:101490004EF21401CEF2000108604FF0FF300F2130
:1014A00000F070F84EF21801CEF200010020086042
:1014B0004EF21002CEF20002072111600190FFE708
:1014C000019802B080BD000080B5FFF757F980BDDC
:1014D00080B590B006A800902821FEF7ADFE0098D8
:1014E0000023059304930393029301930122069230
:1014F0004FF48031079108930A9202220D920E91C7
:101500004FF4E0110F91FFF77BFB18B1FFE7FEF7F7
:1015100007FFFFE70F2001900221029100200390B6
:101520004FF480620492059001A8FFF7DFF918B12B
:10153000FFE7FEF7F5FEFFE710B080BD7047000043
:10154000FFE7FEE781B08DF803009DF90300002856
:101550000ED4FFE79DF9031001F01F020120904017
:101560004A094EF20011CEF2000141F82200FFE7D5
:1015700001B070474EF60C50CEF200000068C0F388
:101580000220704782B08DF8070000919DF9070096
:1015900000280AD4FFE7009800019DF907104EF2D9
:1015A0000042CEF2000288540BE0009800019DF842
:1015B000071001F00F014EF61452CEF200028854CB
:1015C000FFE702B07047000083B00290029800F07D
:1015D000070000904EF60C51CEF200010868019011
:1015E00001984FF6FF02104001900198009A40EADE
:1015F00002200022C0F2FA521043019001980860C4
:1016000003B0704780B586B000200590FFF7C4F89E
:10161000FFF75EFFFFF73CFEFFE700208DF81300A9
:101620008DF81300FFE79DF8130040F20401C2F2A9
:1016300000010978884225DAFFE740F60000C4F28D
:10164000010002904FF4807103910022FFF778F8B7
:101650009DF81300FEF76CFE029803990122FFF734
:101660006FF840F20400C2F2000000789DF81310F9
:10167000401AFEF75DFEFFE79DF8130001308DF87C
:101680001300D0E740F20400C2F2000000788DF8A9
:101690001300FFE79DF81300012825DBFFE740F664
:1016A0000000C4F2010000904FF48071019100220B
:1016B000FFF746F89DF81300FEF73AFE00980199EF
:1016C0000122FFF73DF840F20400C2F2000000786A
:1016D0009DF81310401AFEF72BFEFFE79DF813004C
:1016E00001388DF81300D5E797E7000000000000EF
:1016F00000000102030406070809020304050607A7
:1017000008090A0B0C0D0E0F10100102301700080B
:10171000000000201000000094010008401700089D
:101720001000002068060000B4010008000000005E
:1017300000127A00140100001000000000000000F8
:0400000508000131BD
:00000001FF
